:020000040800F2
:1000000008080020C9000008EF000008D307000816
:1000100000000000000000000000000000000000E0
:10002000000000000000000000000000F3000008D5
:100030000000000000000000F5000008D5080008DE
:10004000F9000008F9000008F9000008F9000008AC
:10005000F9000008F9000008F9000008F90000089C
:1000600000000000F9000008F9000008F90000088D
:10007000F9000008F9000008F9000008F90000087C
:10008000F90000080000000000000000F90000086E
:1000900000000000F9000008F9000008F90000085D
:1000A00000000000F900000800000000F90000084E
:1000B0000448854600F0BCF900F048F800480047C5
:1000C000C11F0008080800200C4880F308880C486D
:1000D0000168090E0B4A914205D10B480B4901609A
:1000E0000B480C4901600C4880470C480047FEE76C
:1000F000FEE7FEE7FEE7FEE7FEE700000808002057
:10010000040000001F000000181002400100000061
:100110000000014000000000D9080008B1000008FC
:1001200030B50B46014600202022012409E00D468F
:10013000D5409D4205D31D469540491B2546954017
:1001400040191546521E002DF1DC30BD70B5054C2E
:10015000054D03E0206800198047241DAC42F9D109
:1001600070BD0000CC2F0008D02F0008F8B5024663
:100170004A40D40F42004B0052085B089A4202D218
:100180000246084611464A0023D0C30D4A00DDB29C
:10019000120EAD1A202D35DA49020126490AF6055C
:1001A0008A19002C00D0524220214F1B1146B94021
:1001B0002A411018C20D9A4221D0002C17D0012DCF
:1001C00008DCDA05801AD20F8019D207DBB200F002
:1001D000F5F8F8BDDA05801A012340001B06C018A7
:1001E00080185A428018CA0F1043490007E0490896
:1001F000C2071143DA05801A80194008801800F000
:10020000D5F8F8BD61000122511A001BF7E7012261
:10021000D2075140AAE70122D2075040A6E7024682
:1002200070B54A40D30FDB0740002DD04A002AD0DA
:10023000010E140E000212020919400A520A841813
:10024000E50104465443000A120A2E045043A4193F
:100250004219200CC543AA18120C0125AD03521CEB
:10026000521912047F39240400D0521C104301D4C7
:100270004000491EC2B20C06C0092018401C4008AC
:10028000802A02D003E0002070BD40084000002911
:1002900000DA0020184370BD70B502464A40D50F01
:1002A00040004A00ED0740085208002814D0002AF8
:1002B00012D0C40DD30D41020120C0055202490ADB
:1002C000520AE41A091812187D34914201D3641CB1
:1002D00000E04900002C01DA002070BD00239142AB
:1002E00001D3891A0343400849000028F7D10029A7
:1002F0000AD0914202D10121C90705E0914201D201
:10030000012101E00121C943E005C018401900F0B6
:100310004DF870BD420005D04200120E52428A4292
:1003200001DB00207047C90508187047C217C10FCC
:10033000504010B54018CA079623002100F03EF83F
:1003400010BD10B500229623114600F037F810BDFD
:10035000C20F410040020123400ADB05D207090E0B
:10036000C0187F2901DA00207047962903DC962304
:10037000591AC84001E096398840002AF4D040421A
:10038000704700000122D207002800DB101A002964
:1003900000DB511A814270470122D207002800DB9E
:1003A000101A002900DB511A88427047002904DA2C
:1003B000401C490001D140084000704770B400243F
:1003C000050C05D11024000402D1002921D01124EC
:1003D000050E01D100020834050F01D10001241DD2
:1003E000850F01D18000A41C002801DB4000641CA3
:1003F000002908D020252E1B0D46F540A14000D035
:1004000001212943084301061B1B000ADB1D02D5FD
:10041000002070BC7047DB05181880180029F8DA36
:10042000401C4900F5D170BC4008400070470000F6
:10043000064C0125064E05E0E36807CC2B430C3C37
:1004400098471034B442F7D3FFF736FEAC2F0008BC
:10045000CC2F000870B58C180578401C6B075B0F1B
:1004600001D10378401C2A1106D10278401C03E018
:1004700006780E70401C491C5B1EF9D12B0705D471
:100480000023521E0DD40B70491CFAE70378401C60
:10049000CB1A921C03E01D780D70491C5B1C521E88
:1004A000F9D5A142D8D3002070BD836A0B43836283
:1004B000426170470029816801D0012200E00222D8
:1004C0001143816070470029C16802D001221143A5
:1004D00001E049084900C1607047C26802239A439D
:1004E000C260C2680A43C26070478268002101236B
:1004F000DB071A4382600F231B038268491CD20F5B
:10050000D207994201D0002AF7D18168002901DB86
:10051000006C70470020704730B5C268084B8C688B
:100520001A400B680D792343CC686D032C43234399
:100530000C69496923430B431343C36030BD00007A
:1005400003D2FFFF816804221143816070470021BC
:10055000016001718160C16001614161704700000B
:100560000122054992050028886801D0104300E067
:10057000904388607047000000270140002901680F
:1005800002D00122114301E0014A1140016070478D
:10059000FEFF000030B503680C4A0C6A13408A68FD
:1005A0004D6922430C692C4322438C692243CC6958
:1005B00022434C6A22438C6A22431A430260CA686F
:1005C00042600A6882604968C16030BD0F80FFFFE9
:1005D00008490420CA68D20701D001207047CA68C0
:1005E000D20601D502207047C9684907FBD5032010
:1005F0007047000000200240024801698022114338
:100600000161704700200240F0B5AA2400F036F8DE
:10061000002800D000240B273F04384600F07CF867
:10062000042813D1134D28692026304328612869F6
:10063000402108432861384600F06EF81021042854
:1006400005D0052802D02A698A432A61F0BD2869AD
:10065000B043286128690E4630432861064804806B
:10066000384600F059F80528F0D02969B1432961CE
:10067000F0BD00000020024000F8FF1F03490020E9
:10068000C9694907890F00D0012070470020024046
:100690000248016942159143016170470020024000
:1006A000F0B507460B200E46000400F035F804288C
:1006B0000ED1084C20691025284320613E800B2074
:1006C000000400F029F8052802D02169A94321611E
:1006D000F0BD00000020024004480169890503D4F0
:1006E0000349816003498160704700000020024097
:1006F00023016745AB89EFCD04480169090603D59D
:1007000003494160034941607047000000200240F6
:1007100023016745AB89EFCD00B50346FFF758FFCE
:1007200002E0FFF755FF5B1E012803D0002B00D12C
:10073000052000BD002BF4D1FAE7F0B50022032517
:1007400001230C6893401C409C422AD10C79012C57
:1007500001D0022C12D1876854002E46A640B74320
:1007600087604E79A64084682643866084889C43CF
:10077000848084888B7993401C438480066853006E
:100780002C469C40A64306600E7907689E403E4377
:100790000660C668A643C660CC799C40C3681C430B
:1007A000C460521C102ACBD3F0BD4B07DB0E9A401D
:1007B000C90810B589000818016A0F249C40A1439C
:1007C0000162016A1143016210BD018570478161B8
:1007D0007047052000F040FF70B5FF25002104465A
:1007E000AD05C943FFF796FD06460F4960100C1A88
:1007F00021463046FFF713FD2146FFF710FD29463D
:10080000FFF709FD2146FFF70AFD04460146304681
:10081000FFF705FD2146FFF702FD2946FFF7FBFC28
:100820002146FFF7FCFC70BDDF59375F044A002901
:10083000516901D0014300E08143516170470000DC
:1008400000100240044A0029D16901D0014300E0B0
:100850008143D1617047000000100240044A002922
:10086000916901D0014300E081439161704700002C
:10087000001002400CB50020009001901349112097
:1008800008601348416841604168416041687B22CB
:10089000D2039143416041680522D2041143416073
:1008A0000168012212061143016001688901FCD52B
:1008B0004168890889004160416802221143416012
:1008C00041680907890F0229FAD10CBD00200240B6
:1008D000001002407047000010B514480168012262
:1008E000114301604168124A114041600168114A98
:1008F0001140016001680122920491430160416846
:100900003F22120491434160C16A09090901C16291
:10091000016BFF22543291430163416B4908490046
:10092000416300218160FFF7A5FF10BD0010024068
:100930000CB8FF08FFFFF6FE0029018802D0012253
:10094000114301E049084900018070474030002907
:10095000818803D00122D203114301E04904490CEC
:100960008180704770B5028C520852000284048C5A
:100970008288038B7025AB439B080D889B001D4329
:1009800002239C438E894B882643104C3343A0425C
:1009900008D00F4CA04205D00E4CA04202D00E4C05
:1009A000A0420DD10824A343CC891C4304239C43BB
:1009B0008B882343094C22400C8A14434A8A2243E1
:1009C0008280058389684163038470BD002C0140E7
:1009D000004001400044014000480140FFFC00008D
:1009E00070B5028C10239A430284048C8288038B96
:1009F0001A4D2B400D782D062D0C1D4320239C43B2
:100A00008B891B051E0C4B8826431B051B0C144CA5
:100A10003343A04202D0134EB04219D1124E32409D
:100A20000E8AB604360C3243A04211D18024A3436F
:100A3000CC892405240C1C4340239C438B881B0534
:100A40001B0C2343094C22404C8AA404240C22434F
:100A50008280058389688163038470BDFF8C0000F8
:100A6000002C014000400140FFFB0000FFF70000A8
:100A700030B5028C124B1A400284058C8288838B1D
:100A8000104C23400C782406240C1C430E4B1D40B4
:100A90000B7B1B071B0C2B438D782D072D0C1D4347
:100AA0000A4B984205D10A4B13400A8A9205120C50
:100AB0001A438280848389680164058430BD000004
:100AC000FFEF0000FF8C0000FFDF0000002C014062
:100AD000FFBF000010B50288144B984206D00124D5
:100AE000A407A04202D0124CA04203D17024A2431A
:100AF0004C8822430F4CA04203D00F4C22400C895B
:100B0000224302804A68C2620A880285984208D05D
:100B10000A4A904205D00A4A904202D0094A9042BD
:100B200001D1897A01860121818210BD002C01400A
:100B30000004004000100040FFFC000000400140A5
:100B400000440140004801400021016041607047BD
:100B500030B47446641E2578641CAB4200D21D4636
:100B6000635D5B00E31830BC1847FFB581B01C46DD
:100B700017460E0007D0019D02E02846B047ED1948
:100B80002046641EF9D2019805B0F0BD02E008C805
:100B9000121F08C1002AFAD170477047002001E0F7
:100BA00001C1121F002AFBD17047000010B50323BA
:100BB0000C2204490448FFF7D8FF044800210160D3
:100BC00010BD0000490B000858030020F40000206D
:100BD00070B5174D064668680024002801D101F061
:100BE00049FE2868002801D101F0C6FE0722012332
:100BF00001F00EFE00F01EF8002803D018469040C9
:100C00002043C4B201F026FE521EF1D5002E02D0C0
:100C100001F030FE01E001F041FE01F0F9FD01F0CC
:100C200019FE6868002801D001F038FE204670BD2A
:100C3000680100200920C006008A012189020840BD
:100C40007047000010B505484068002801D101F048
:100C500011FE01F0DDFD01F021FE10BD6801002054
:100C600070B5104E0546B068012801D101F0F2FDC3
:100C7000072428462041C00702D001F0FBFD01E017
:100C800001F00CFE01F0D2FD641EF2D57068002860
:100C900001D101F0EFFD01F0BBFD01F0DBFD3846B5
:100CA00070BD00006801002010B5074A9068002858
:100CB00001D101F0ADFD5068012803D1FFF7BAFF63
:100CC00001F0ECFD10BD00006801002010B5084CDB
:100CD0006068012804D1A068002806D101F0DEFD7B
:100CE000A068002801D101F093FD01F0C3FD10BD03
:100CF00068010020F8B5154E45200006374600254E
:100D0000183FB06001F082FE0024A000395880191D
:100D10000F4A01F0F8F8641C032CF6DB00F092FE99
:100D2000FF20F5306D1C8542ECDB45210906B068DB
:100D3000FFF76DFA074D0024B060A0008019294626
:100D400001F0CEF8641C032CF7DBF8BD240300206F
:100D50001F856B3F0000FE4270B592B02025032036
:100D60006946069508770024CC77092006A9C006B5
:100D7000FFF7E3FC01214802FFF770FD012108465F
:100D8000FFF754FD2A4806902A4807900220099050
:100D900080200B9040000C90089480000E950D90E0
:100DA0000A94C000244D0F9006A910942846FFF71E
:100DB000F1FB1F4E0221403E3046FFF78EFB012122
:100DC0003046FFF780FB6846FFF7C1FB012069460C
:100DD0000094087104200590029404943046FFF7B3
:100DE0009BFB0121072249043046FFF75EFB0722E7
:100DF00020213046FFF759FB0120FFF7B1FB3046B9
:100E0000FFF773FB01213046FFF754FB3046FFF735
:100E100099FB01212846FFF7B1FB08480088FFF73E
:100E200090FA0749FFF7FBF90249486012B070BD1C
:100E3000402401405C01002008000240BAF7FF1F77
:100E400062DB963F10B50B49002803D0012808D07B
:100E5000002010BD0888FFF774FA0749FFF7DFF993
:100E600010BD4888FFF76DFA014602484068FFF759
:100E700013FA10BD5C0100203FC8B23AF8B58400F7
:100E800012480159124807593846FFF7C8F90F4D63
:100E9000064610352846083001593846FFF7B7F99D
:100EA000294608390959FFF7BAF90A490968FFF7CD
:100EB000B6F93146FFF7AFF92851284608300751F7
:100EC0006019054901F00CF82859F8BDFC00002014
:100ED0007C03002028010020DB0FC94070B5184CAE
:100EE000606A002804D00025012809D0656270BD21
:100EF0000120E06001F0E6FC606A401C606270BDA9
:100F0000172001F0F3FFC00608D58F21002002F062
:100F100012F86562E56001F089FA70BD00F092FD9B
:100F2000616B401A07498842F7D9E12001F0BDFF03
:100F30008F21002001F0FFFF6562E56070BD0000B9
:100F40005C0000201027000070B5002506462C46E6
:100F5000A00030580146FFF762F92946FFF706F96D
:100F6000641CE4B20546032CF2D3FFF735FC0146BE
:100F70007F20C005FFF790F970BD0000F8B51B4E4B
:100F80000C22716833685143194A9C008A18164D27
:100F90001159002807D0491C164D1151002B09D1B9
:100FA0005068401C05E0491E1151002B02D15068C9
:100FB000401E5060B76829463859FFF730F938515C
:100FC0003468002C04D129467868FFF728F9786046
:100FD00070680C21484306494018A1004058002879
:100FE00000DA4042F8BD00002EBA683F1C01002024
:100FF00088030020CDCC8C3F30B5002207239C1AFB
:101000006418203C855CE47FA54201D0002030BDFF
:10101000521C072AF3DB012030BD0000FEB507207B
:1010200001F064FF0007400F0025072801D00220CF
:1010300000E028460126584C002859D06068002856
:101040001DD000F0FFFC07460F21544801F038FF87
:1010500000F084FA00284BD0E06A401CE062E069AE
:10106000002801D0FFF73AFF6561A561A068A7637A
:10107000E76325616064E068002837D03BE00F211A
:10108000464801F01DFF454B1868A42801D0A3284D
:101090002ED1A32802D14248E66120623E4F187E3D
:1010A00028373870187F7870188CB870988CF87062
:1010B0003C486A4603C80090019101208100595CB8
:1010C0001154401C0628F9DB0621104601F0DCFE15
:1010D0003020694608700621684601F0D5FEA068F8
:1010E000395C252001F027FF666001E001F09EF9E0
:1010F000E068002801D0FFF7F1FE00F0A3FC0746EE
:10110000A06B391A206A82007D20C000101881422D
:101110000BD96068002808D0A763A069002801D116
:10112000606CA06001F082F9A661E168A0690843E3
:1011300019D160690090052815D26068002812D086
:10114000A06B7D21381AC90088420CD9216AFEF7AC
:10115000E7FF01460098401C814204D301F066F984
:101160006069401C6061E06B381A0F4FB84205D9C6
:101170000E482661056045608560C56000F062FC30
:10118000216C401AB84205D9E06AE562206300F09C
:1011900059FC2064FEBD00005C000020D00200204D
:1011A000881300008C2F000840420F00A802002086
:1011B000F0B57F2087B0C005CC4C0090A07A002805
:1011C00002D13F2000060090C94F0025C948AE005B
:1011D00080590099FFF723F86D1CB851032DF5DBFA
:1011E00000F09AFAC4480068002807D0C34A0020DB
:1011F00081005358401C7B500328F9DBC04800781D
:10120000002804D02078002801D101F05DFDBD4EFA
:101210000025306800283FD000F094FB00283BD028
:10122000032805D0B84A02281DD001281FD021E08C
:1012300000F028FCFFF75EFDB448B5494068FEF7B2
:1012400095FFFFF785F80090B048B1490068FEF7B8
:101250008DFFFFF77DF8009900F000FB00F0F2FB36
:10126000AC49086018E001212171116002E0012100
:10127000116025710021042806D0052807D0062812
:101280004CD007284DD005E001F0B4F801E001F0A2
:101290009FF80146A048016001F0AAF9934800793F
:1012A000002803D09D480068002827D09C49386852
:1012B000FEF7B5FF9B49FEF7B2FF9B4C2168FEF796
:1012C000A6FF8B490C39086095497868FEF7A7FF9F
:1012D0009449FEF7A4FF6168FEF799FF84490C3931
:1012E00048608F49B868FEF79AFF8E49FEF797FF6E
:1012F000A168FEF78CFF7E490C398860002001F060
:10130000B5F8012001F0B2F8022001F0AFF87948F9
:101310008649C068884207DA00240BE000F056FDD9
:10132000B7E700F083F9B4E7FEF771FF8049FEF7F5
:1013300076FF04467F480068002802D17E48844238
:101340001ADA7068002807D000F07CFB7168401A38
:101350007A49884200D975600024E0B2002101F08A
:10136000D1F92146002001F00BF8641C032CF4DDB8
:101370000120B560306069E0624D0020286000F017
:1013800061FB68605C480068002801D05B48C46865
:101390006B4D20462E683146FEF739FF059069688F
:1013A0000491FEF734FFAD682946FEF7DFFE039097
:1013B00031462046FEF7DAFE04460499FEF727FF81
:1013C0002946FEF724FF019004990598FEF7CEFE0A
:1013D0002946FEF71CFF029020460499FEF7C6FE40
:1013E0002946FEF7C3FE0090002146480D466E4692
:1013F0008160AC003059294600F0C2FF514930519C
:10140000884200DA3151305900F0E0FF0146E8B27D
:1014100001F078F930590121C907884202D900202A
:10142000305104E07F21C905884200DD3151315936
:10143000344CA068FEF79AFE6D1CA060032DD8DD29
:101440000121C943A068FEF765FFA0602748007925
:10145000002848D031480068002844D101F05EFCE3
:101460002F49B868FEF7DBFE2E49FEF7D8FE054689
:10147000354C29466068FEF7D2FE009001212068B5
:10148000C90748402946FEF7CAFE01902946A068D0
:10149000FEF7C5FE2D4E2E4F00240290A500705978
:1014A0002C49FEF7BCFE0146E8192B4A00F02BFD43
:1014B000641C012CF2DD0E4F00241B4E0C3F204615
:1014C000FFF7DCFCA50069464959FEF74FFE71594C
:1014D000FEF79DFE641C7851022CF0DBB168029887
:1014E000FEF795FEB86007B0F0BD0000DC010020FB
:1014F0009C010020A8020020D80000204803002002
:10150000C40200200000002020000020240300204E
:101510000000FE424000002024000020D0000020F7
:101520000000B44335FA8E3C18030020CDCCCC3DEE
:10153000E4388E3F6C0000206F12833A40420F0067
:10154000B8030020CDCC4C3DC40000203C0300205B
:101550007C030020E12E65423333733FF8B52D4CF8
:101560002068A52853D1002108468200A258401CBB
:1015700051180E28F9DBC8B2A16B884247D1254823
:10158000103000F063FF244D28602248183000F02E
:101590005DFF68601F48283000F058FFA860208C6D
:1015A000616A8007800D4018FEF7C0FE1B49FEF7F8
:1015B00036FEE860207B1A4D0006C00FA871A068B7
:1015C000C106C90FE9718106C90F29720107C90F48
:1015D00029706168FA2918D0002169708107C90F44
:1015E000C007A970C00FE87000200E4B0E4C0746D4
:1015F00001261F54225C295C8A4200D01E542154CB
:10160000401C0A28F5DB0120F8BD0121E5E7002098
:10161000F8BD0000D0020020A8020020F7FF7F3AAA
:10162000DC010020C4020020B802002010B5002018
:10163000FFF7A4FC10BD08B5810040180090411EC2
:10164000009101D30846FAE708BD01200146401E7B
:10165000C0B20029FAD1704706460024E0B200214A
:1016600001F050F8641C032CF8DD0B4DAF00002492
:101670000CE0FF2000F022FC2846FFF7DCFFFF20F3
:1016800000F00AFC2846FFF7D6FF641CB442F0DBEA
:101690003846FFF7D0FFEAE7400D030010B50349D5
:1016A000FEF764FD00F004F810BD0000DB0FC93F39
:1016B00070B50446134E144D03E03146FEF756FD57
:1016C0000446AC42F9D8114DAC4204DD3146FEF778
:1016D0009EFD0446F8E70120C0070D490D4D8442E8
:1016E000204605D9FEF79BFD2946FEF73FFD04E0A5
:1016F000FEF795FD2946FEF78EFD2146FEF78FFD8C
:1017000070BD0000DB0FC940DB0F49C0DB0F494053
:101710007B81CF3E83F9A23FF8B5444CE0680028B6
:1017200049D0434806270068002800D0276100F010
:1017300089F9E169401A3F49884200D92761206947
:1017400000263D4D0300FFF703FA07360522374A0E
:10175000586B690001202060A0606E603748AE6061
:10176000E860374881680120C00781420DD9A0692F
:10177000002801D0334800E033486169890068508F
:101780003F200006E86004202061022012E000F003
:1017900059F9E169411A2D4881420CD9A069002804
:1017A00001D0284800E02848616989006850234832
:1017B000E86003202061F8BD00F044F9E169401AB7
:1017C0002349884200D927611D4881680120C0074C
:1017D0008142F0D93F200006E8600420EAE718487B
:1017E00080680028E7DD00F02DF920621948E860E4
:1017F0000120266060600520DCE717480168296049
:10180000416869608068A860606980002E5000F0BF
:1018100019F9216A411A0D488142CCD92761F8BDD6
:10182000E660266126606660A660F8BDD0000020F4
:101830000000002060E3160048030020CDCC4C3FA0
:10184000C400002055558540555585C0400D030006
:1018500060AE0A009A99193FA802002070B50D46A3
:101860000446FEF749FFFEF737FFFEF7CDFEE1B273
:101870000648FEF715FF0548E9B2801CFEF710FF89
:10188000FEF7BAFEFEF704FF002070BD04F8FF1F4C
:1018900030B52A4C217881424ED007216218203A77
:1018A000D27F6254491E0129F8DA20702449234866
:1018B000FFF7A2FB7F25002802D06570012030BD14
:1018C0001F491E48C91DFFF797FB002802D065700D
:1018D000022030BD1A4919480E31FFF78DFB002850
:1018E00002D06570032030BD154914481531FFF74B
:1018F00083FB002802D06570042030BD10490F48DA
:101900001C31FFF779FB002802D06570052030BD3F
:101910000B490A482331FFF76FFB002802D065709E
:10192000062030BD064905482A31FFF765FB00282F
:1019300002D06570072030BD002030BD540000206B
:10194000582F000870B53948394C0068002867D016
:10195000384B7D201A68C0055100490881420BDAD6
:101960009D686D006D08854206DA5D686D006D0842
:10197000854201DA002031E0BF252D06AA4202D8B7
:101980009E68AE4206D95E6876007608864201DA25
:10199000012023E03F263606B24202DC9A68B242BA
:1019A00006DD5A6852005208824201DA022015E030
:1019B0005A68AA4208D9814206DA9D686D006D080E
:1019C000854201DA032009E0B24208DD814206DAED
:1019D000996849004908814201DA0420206000F03A
:1019E00031F806CC083C914200D0E060E268801AF1
:1019F000114A90420FD9002904D1104A904201D9CE
:101A00000C2005E00E4A904204D97F2903D0FF2024
:101A1000A06000E0A1606160A068FFF739FF70BDC1
:101A20007F20A0606060002070BD000000000020EA
:101A300044000020A8020020A086010040420F00C0
:101A400020A1070010B501F007FA10BD1CB5232036
:101A500001214004FEF7EAFE0120694608710020DA
:101A60008871C8710320487104200924E40600909D
:101A70002046FEF762FE0821009169462046FEF7E7
:101A80005CFE1CBDF0B591B0FFF7DCFF0F90054682
:101A90000B900A9000208100574B0CAA5B58401C09
:101AA00053500328F7DB8CE00A980A95281A09900E
:101AB00001D10120099006226946432000F0B4F8C4
:101AC000009801990002401800B2FEF72FFC079021
:101AD000029803990002401800B2FEF727FC069016
:101AE000049805990002401800B2FEF71FFC434E0F
:101AF0000890307800F07CF920464149FEF710FB51
:101B00004048814201D9012100E000213068C2072C
:101B1000D20F914201D0401C30603848017809074B
:101B2000090F00260160B4000CAF06A8395900590E
:101B3000FEF732FC04D238593349FEF717FB38510F
:101B400006A839590059FEF71DFC04D238592E4910
:101B5000FEF75DFB3851E0192C4900F0C1F9385906
:101B60002B4940004008FEF701FB014606AF3859FB
:101B700040004008FEF710FC06D2FFF763FF0B9011
:101B80001E48012101600BE00998FEF7DAFB2149AC
:101B900000F0CFF9024618483959201800F0B3F97F
:101BA000761C032EBFDB7D24E400FFF74BFF401BB8
:101BB000A04203D20A20FFF73EFDF6E7FFF742FFFF
:101BC00005460B982C1A1448844205D20F981349E5
:101BD000281A884200D267E70B98291A0E488142DA
:101BE00007D20020044A01468300401CD15003283C
:101BF000FADB11B0F0BD000030030020C00000206F
:101C000024F40000127A0000CDCCCC3D0000484402
:101C10000000C8420024F44880841E00C0E1E400B3
:101C200010B500F065FF10BD13460A4610B5014619
:101C3000682000F0A0FF012010BD10B5014668200B
:101C400000F080FF10BD0A4610B50146682000F084
:101C5000B9FF10BDF0B5444C444D87B021682868E9
:101C6000FEF7D5FA286061686868FEF7D0FA0024AC
:101C70000A27FF436860A600A8593946FEF74AFBC9
:101C8000641CA851032CF6DB39480024006804AF1B
:101C900000903848A60080590099FEF7C0FA641CED
:101CA000B851032CF5DB344E049834682146FEF716
:101CB000B6FAB168FEF7AFFA019001990498FEF701
:101CC000AEFA2146FEF752FA074601990598FEF74B
:101CD000A6FA7168FEF74AFA044621460598FEF70F
:101CE0009EFA0199FEF797FAB06021460698FEF732
:101CF00096FA3946FEF78FFA3060069A014610468A
:101D0000FEF78DFA2146FEF731FA70601748FFF7AB
:101D10001BF91A491A4A4118914222D27F22D20550
:101D2000014600241046FEF7B7FA0090A700E959D3
:101D3000FEF775FA641CE851032C01DA0098F5E708
:101D40000B4801218907006800F0F3F807460024DA
:101D5000A000295880193A4600F0D5F8641C032CDD
:101D6000F6DB07B0F0BD0000240300200C030020C8
:101D70003C00002018030020C4000020CCCCCCC0C4
:101D800032337300F8B500250D4F00F03FFE0024FC
:101D9000A6000A21B859C943FEF7BCFA0146094812
:101DA000094A301800F0AFF8641C032CF0DB7D20EA
:101DB000C000FFF740FC6D1C642DE6DBF8BD0000A1
:101DC0000C030020C40000209A99593F10B501204F
:101DD000FFF7D4F810BD0EB500226B461A805A806A
:101DE00001911A819A726946FEF774FE0EBD0000D9
:101DF00070B50646FFF726FE194C21692061451A89
:101E00003046FEF79EFA1749FEF709FA0646012109
:101E1000204689070C3000F063F82846FEF791FA57
:101E2000054630466168FEF7F2F92946FEF7F7F9F4
:101E30000D49FEF7F4F9E168FEF798F90B49E06007
:101E4000884205DDFF2000F039F87F20C00503E05F
:101E5000FF2000F021F800206060002070BD00002D
:101E6000AC0000208988883D6F12833A48E1FA3E31
:101E700070B50D460446FFF7E5FD2146FEF750F923
:101E80006C432009814203D90F2000F017F870BD80
:101E90000F2000F001F870BD70B50446064DC00774
:101EA00003D004212846FEF792FCA00703D50821A1
:101EB0002846FEF78CFC70BD0000004870B5044653
:101EC000064DC00703D004212846FEF77EFCA0077C
:101ED00003D508212846FEF778FC70BD00000048B5
:101EE00070B504460120C0070D4645400E462068E7
:101EF000FEF752FA00D2266028462168FEF74CFA17
:101F000000D2256070BD70B505460C467F20164690
:101F10001146C005FEF77BF92146FEF780F904461D
:101F200031462868FEF77BF92146FEF71FF9286045
:101F300070BD10B5FEF7B0F97F24E4052146FEF729
:101F40006AF9A04201DD204610BD0121C90788427F
:101F5000FAD9002010BD0000F8B50C225143144AF4
:101F600005468C1860682060A06812496060FEF722
:101F700056F9064610492068FEF751F907460F4901
:101F80002846FEF74CF93946FEF7F0F83146FEF7E1
:101F9000EDF80546A06001216068FEF7BBF9064632
:101FA00029462068FEF7E2F83146FEF7DFF8F8BD73
:101FB00058030020D0AF7D3F2D5793BE8EF7973D3D
:101FC0000EB57D20C000FFF736FBFFF73FFD00F0A8
:101FD00019FE00F02BFFCD48FFF72DFBFFF720FE89
:101FE00000F016FB0021084600F08CFB00210120C8
:101FF00000F088FB0021032000F084FB0021022078
:1020000000F080FB00F0D6FC00F0C4FC002839D0C2
:10201000FEF7A2FEBE4901208872087100F0AEFBF7
:10202000BC4D00240020FEF70DFF2968FEF79EF846
:1020300028607D20C000FFF7FEFA641C402CF1DB15
:102040000521C9432868FEF765F92860FFF71AFDE6
:1020500000F093FBFFF796FEAF4CA08800F082FBE8
:102060007F38FEF763F9AD4E3060E08800F07AFB10
:102070007F38FEF75BF97060A9480068002803D03C
:10208000072021E004201FE0FFF7DCFC6863FFF776
:10209000D9FCA04C0546606B281AFEF752F9206364
:1020A000002802DC7F20C00520639E49FEF7B7F8B8
:1020B0009D492063884201DD062005E0984865635C
:1020C0000068142802D90820FFF7C6FA00F09EFC29
:1020D000FFF76EF8FFF7BEFD0020FEF7B3FE8D4C54
:1020E000E168FEF79CF806460120FEF7ABFE0146CC
:1020F0008E4F20463A460C30FFF705FF8C4866604D
:1021000001683A466846FFF7FEFE2046894A2030BD
:102110002168FFF7F8FE3A4631462046FFF7F3FE06
:102120000121C943206AFEF7F5F806468249206876
:10213000FEF775F83146FEF76AF801907F48009C7B
:10214000844258DD734F786A0646FEF7EFF87B4904
:10215000FEF765F82146FEF762F80199FEF706F8EA
:102160006B49B4006C3108510646F86A002808D063
:10217000002030398200401C8E500C28FADB0020F1
:10218000F86263486E490C300059FEF748F8029037
:102190005F483C3001593046FEF739F80299FDF7A7
:1021A000E5FF5B493C310E51303908510146FEF7DD
:1021B00036F8574E01469C36A019624AFFF7A3FE37
:1021C000786A401C78620C2801DB00207862306855
:1021D0000290786A0B280ED10024A700F0590299CA
:1021E000FEF7D0F804D2F05902904A48611C81628F
:1021F000641C0C2CF1DB474C2069002800D04F48B0
:102200005149FDF7B3FF0746A06AFEF78FF84B4E22
:102210003146FEF704F80099FEF701F80199FDF741
:10222000A5FF3946FEF7AEF803D348492068884237
:1022300001DA012000E000202061A06AFEF776F8B4
:102240003146FDF7ECFF0099FDF7E9FF0199FDF735
:102250008DFFA0602069002801D0082108E03C48DB
:102260000068002806D03B480068002804D00F21F1
:1022700039482DE00C2113E06069002812D0E06994
:10228000002802D1FFF7DEFBE061FFF7DBFBE1692D
:10229000411A3148814202D900206061E061082181
:1022A0001A4815E0A069002815D0E069002802D17D
:1022B000FFF7C8FBE061FFF7C5FBE169411A26485B
:1022C000814204D9A169491EA1610021E161012176
:1022D000FFF7CEFD0AE00E48807A002803D0FF20E9
:1022E000FFF7ECFD02E0FF20FFF7D6FDFEF796FEBC
:1022F0007D24E40002E00A20FFF79DF9FFF7A2FB2E
:10230000401BA04200D3C2E6F5E70000A086010012
:10231000DC0100200C00002000F8FF1F2403002037
:1023200064010020BD3786350AD7A33C492E7F3F84
:102330000800002028EA7F3F0000A03FCDCCCC3D24
:1023400091ED7C3F5BB17F3F00006040CDCC2C40E5
:10235000600000206C00002020A1070010B5064995
:102360000868002806D000200860091D087103488D
:10237000FEF7E3F910BD00007C01002000140048C6
:10238000F3B58C00104E012183B03059C943FDF7DD
:10239000C1FF3746103F01903D590021C9432846EF
:1023A000FDF7B8FF01210090C9430398FDF7B2FF84
:1023B0000099FDF7DBFE0199FDF7D8FE3551039931
:1023C000395105B0F0BD0000BC010020704700008D
:1023D000074902220868022802D0002803D003E03F
:1023E0000020086000E00A600868401C7047000098
:1023F0001C0100200C494868002804D0012807D09F
:1024000002280AD10BE008481C308860012003E054
:1024100005482830886002204860401C7047024808
:10242000103088600020F7E71C01002010B5064935
:10243000087A401C8007800F88602831095C2520BD
:1024400000F079FD10BD00005C00002010B541686F
:1024500000788007800DFF38FF3802380818FDF734
:1024600065FF0821C943FDF755FF10BDF1B5574879
:1024700084B001680498564F564E8400002904D059
:1024800038595549FDF7CBFE3851544800250159BC
:102490004F480C300059FDF775FF03D13059002823
:1024A00000DD01254D4801210059C9074840484930
:1024B0000C310959FDF766FF04D131590120C007DD
:1024C000814226D8002D24D14148022118300559D7
:1024D0002846FDF71FFF3E493C310959FDF746FEEE
:1024E00031590091FDF742FE3D49FDF798FE3D4907
:1024F0000959FDF794FE3C490968FDF790FE3959EA
:10250000FDF734FE385132483C30055124380099EB
:10251000015132480C3001592D482018FFF7E0FCDA
:102520003048183005597F202946C005FDF76FFE59
:102530003159FDF774FE2B490C390F593946FDF717
:102540006EFE0190224E0120C0070C3668403946CD
:10255000FDF765FE254909590091FDF760FE0199D7
:10256000FDF704FE1A490959FDF700FE039004988F
:102570003746C5001837E819019000214068C94363
:10258000FDF7C8FE00210290C9430098FDF7C2FE86
:102590000299FDF73CFE13490C310959FDF73FFE46
:1025A00010491C39C968FDF73AFE0399FDF733FE5F
:1025B0003051019879594160009908487951015981
:1025C000A019FFF78DFC305905B0F0BD00000020C8
:1025D000AC0300209001002048E17A3F942F0008CE
:1025E0007EAA2A3E380100203C000020180300206B
:1025F00010B5044801680448FDF74EFE0349C86061
:1026000010BD00003C00002017B7513B1C0100200A
:10261000FEB5022569460D710320487100248C71B6
:10262000CC7101212846FEF70DF9314F314839466A
:10263000FFF7D1FB01210E023046FEF703F93946C0
:102640002D4F3846FFF7C7FB2C4860210180012140
:10265000418084810682846010200924E406009071
:1026600069462046FEF769F8042211462046FEF727
:102670009CF822493846FEF775F9402000906946DB
:102680002046FEF75AF8012206212046FEF78DF873
:102690001A491848FEF766F98020009069462046DE
:1026A000FEF74BF8012207212046FEF77EF813497A
:1026B0001048FEF795F9124C694620460095FEF742
:1026C0003CF8012211462046FEF76FF80B490948F5
:1026D000FEF7CEF901210748FEF72EF90121054842
:1026E000FEF734F901213846FEF726F9FEBD000059
:1026F000B70B00000004004000200040F40300205D
:102700000004004810B50A46044612491046FDF779
:1027100086FDFDF71DFE002801DA002003E00E49CA
:10272000884200DD08460D49002C08D0012C08D055
:10273000022C0AD0032C01D180B2886310BD80B274
:1027400001E0074980B2486310BD044980B24031BE
:10275000086010BD00703B45B70B0000000400404E
:10276000002000400104FF22090ED2431143C0B2F1
:10277000C943884200D07F207047704710B5224877
:10278000012181720022C272017102211F4800F0F2
:102790007BFB6420FEF74FFF1C480621483000F009
:1027A00073FB0021012000F0C6FB0121022000F094
:1027B000C2FB2121062000F0BEFB0F21112000F0FA
:1027C000BAFB0021042000F0B6FB0321084600F00C
:1027D000B2FBE22000F069FB0021052000F0ABFB1A
:1027E00038211D2000F0A7FB00F006FAFD2000F0C4
:1027F00045FA002000F042FA00F0F8F98F2100209D
:1028000000F099FB10BD0000DC0100205C000020FE
:1028100000B5012009214002C9068861FEF715FFB5
:1028200001490120886000BD6801002000B5012237
:1028300009205202C0068261FEF707FF03480281A9
:10284000FEF703FF02490020886000BD2000004819
:102850006801002000B50120044940020881FEF70C
:10286000F4FE03490020886000BD000020000048FD
:102870006801002010B5084C2068002801D100F044
:102880007BF8012009218002C9068861FEF7DDFE80
:102890000120606010BD00006801002010B5074CE9
:1028A0002068002801D100F067F801200449800267
:1028B000088100206060FEF7C8FE10BD680100209E
:1028C0002000004870B590B000206C468100605038
:1028D000401C0F28FADB852000902248224D066814
:1028E0002248019629460068FDF799FCFDF730FD66
:1028F0000104C0B2090E049003911D4829460068E6
:10290000FDF78DFCFDF724FD0104090EC0B2194D41
:1029100005910690286BC10F08184010FF2800DDB4
:10292000FF200790002E03D003980821084303904E
:10293000002108468200A258401C51180E28F9DBDD
:10294000E1200E9100F0B1FA8221002000F0F3FAAC
:102950000F21684600F0DBFAFFF774F8686310B0E7
:1029600070BD00001C0000200000C8420C000020C8
:10297000140000205C00002010B50549012008600B
:102980000C3108710920C006FDF7D7FE10BD00000C
:102990006801002010B57520FFF74FF9682807D0AF
:1029A000982805D07D2803D0722801D0002010BDC2
:1029B000012010BD10B580216B20FFF744F91248AB
:1029C000FEF739FE01216B20FFF73DF97520FFF777
:1029D00034F9682801D0012400E000246420FEF7C7
:1029E0002AFE18211C20FFF72EF9002C03D0052108
:1029F0001D20FFF728F918211B20FFF724F90321D8
:102A00001A20FFF720F910BD409C0000F0B593B0EC
:102A10000E2269463B20FFF707F90298039900024E
:102A2000401800B2FDF782FC2E4C206000980199FE
:102A30000002401800B24042FDF778FC6060049844
:102A400005990002401800B2FDF770FCA0600898DC
:102A500009990002401800B2FDF768FC11900A982D
:102A60000B990002401800B2FDF760FC10900C9822
:102A70000D990002401800B2FDF758FC1290243462
:102A800021681098FDF7C3FB109061681198FDF75D
:102A9000BEFB1190A1681298FDF7B9FB12900120BE
:102AA000109AC0071199424010911146414011916E
:102AB00012990C4F4140002410AE0C371291A50022
:102AC00070590949FDF7ABFB0849FDF7A8FB7051A8
:102AD0002146FFF741FA641C7851032CEFDB13B059
:102AE000F0BD00000C03002000007A3D35FA8E3C5A
:102AF000FEB50120400200900124684604718471F3
:102B0000C471032509274571FF0669463846FDF75C
:102B100014FEA602694638460096FDF70EFE0848E8
:102B20000021066001718471C47145710C384160E7
:102B300004608160FFF79EFEFFF76AFEFEBD0000A5
:102B40007401002070B50D460446FEF7ADF8600034
:102B50000446FEF785F82846FEF782F8FEF772F87D
:102B6000601CFEF77DF80120FEF732F8C4B2FEF7D4
:102B7000ADF8204670BDFFB581B01D46164607462C
:102B80000024FEF791F878000746FEF769F80298EE
:102B9000FEF766F8FEF756F8781CFEF761F86D1E32
:102BA00005E00020FEF714F8A1007050641CAC4250
:102BB000F7DB0120FEF70CF8A1007050FEF786F855
:102BC00005B0F0BD70B515460E460446FEF76CF82C
:102BD0006000FEF745F83046FEF742F82846FEF75B
:102BE0003FF8C4B2FEF772F8204670BD01200921FB
:102BF000C9068861704700000149012008817047BB
:102C000020000048FEB50124684604710025857146
:102C1000C471032646710220009069460A48FDF7F8
:102C20008CFD0927FF06694638460094FDF785FDAF
:102C30000648046005718571C471467101460248F9
:102C4000FDF77BFDBC61FEBD001400488001002043
:102C500030B400200721074C074D0223A361420036
:102C6000208A2B81C007C00F1043491EF6D530BC07
:102C700070470000001400482014004870B5044656
:102C80000D48012501680D4E002906D105600C484C
:102C9000057101463046FDF750FD0721094A022023
:102CA00023460B41DB0701D0B56100E01581B0611F
:102CB0001081491EF4D570BD7C010020001400482D
:102CC000800100202014004870B5114C1149E068C3
:102CD0000968114E08430125002804D1E560FEF77C
:102CE000B1FE2561E06100206061A0617068410073
:102CF0003068490840004008FDF744FB04D2656194
:102D0000706802E0A56170BD30680028FADC70BD13
:102D1000D000002000000020A8020020FEB53C4E9C
:102D20003C4C70682146FDF77AFA3B4D2946FDF789
:102D300076FA074621463068FDF771FA2946FDF715
:102D40006EFA0446FEF7B4FC05463846FEF7B0FCC2
:102D500006463846FEF7A2FC07462046FEF79EFCD4
:102D60003946FDF75CFA044631463046FDF757FA1E
:102D7000074629462846FDF752FA3946FDF7F6F987
:102D80002649074688420FDD21462046FDF747FACF
:102D90007F21C905FDF73FFA01463846FDF77CFA69
:102DA000FDF71AFD074600E01D4F28463946FDF79E
:102DB00036FA019030463946FDF731FA194E05468C
:102DC00021467068FDF72BFA0090B768294638460F
:102DD000FDF725FA0099FDF71AFA134D21466860B0
:102DE0003068FDF71CFA044638460199FDF717FADA
:102DF0002146FDF70CFA7F24E40528602146284689
:102E0000FFF76EF82146281DFFF76AF8FEBD0000A7
:102E10009C01002000005C4235FA8E3C6F12833A20
:102E2000F4FD343FC40000203C03002010B50848E6
:102E3000064941610749CA6903231202120A440480
:102E40002243CA6100218161036110BD7F8D5B0057
:102E500000E000E004ED00E010B509484269816936
:102E6000084C2068814201D2401A01E0521A101821
:102E700021600621FDF754F961684018606010BDBB
:102E800000E000E08801002070B50D460646FFF71F
:102E9000B3FE002404E0305DFFF7F0FE641CE4B2F2
:102EA000AC42F8D3FFF7A2FE70BD10B50446FFF7A1
:102EB000A3FE2046FFF7E2FEFFF798FE002010BDBC
:102EC00070B50D4606460024FFF796FE6120FFF719
:102ED000D5FEFFF743FA04E0FFF7BAFEA1007050F9
:102EE000641CAC42F8DBFFF781FE70BD10B5C40670
:102EF000E40EFFF781FE2046FFF7C0FEFFF72EFA33
:102F0000FFF7A6FE0446FFF771FE204610BD70B520
:102F10000D4606460024FFF76FFEA020FFF7AEFE29
:102F200004E0A0003058FFF7A9FE641CAC42F8DBB7
:102F3000FFF75CFE70BD70B58406A40E20200D4620
:102F40000443FFF759FE2046FFF798FE2846FFF797
:102F500095FEFFF74BFE70BD0C0100010003000C55
:102F60000200020003000C0300030003000C040035
:102F7000030004000C0400030003000C0400030021
:102F800002000C0400030001000000002A00000001
:102F900000000000CDCC4C3FCDCC4C3F0000003FAA
:102FA000CDCC4C3FCDCC4C3F0000003FD02F000893
:102FB00000000020900100005404000824300008A4
:102FC00090010020780600009C0B0008E1DBFFFF69
:102FD00032012904812D666686400421AB803F18AA
:102FE000691C81E91C01140A1D39250326B80B024E
:102FF000292A032C803F2D295C8F3D042D8FC2F59B
:103000003C040118132C0142202DEC51B83D043131
:103010005D3F9A9919046B993E0C416DCDCCCC3D26
:043020000401340073
:04000005080000C926
:00000001FF
