:020000040800F2
:1000000028080020C9000008EF0000086707000862
:1000100000000000000000000000000000000000E0
:10002000000000000000000000000000F3000008D5
:100030000000000000000000F5000008690800084A
:10004000F9000008F9000008F9000008F9000008AC
:10005000F9000008F9000008F9000008F90000089C
:1000600000000000F9000008F9000008F90000088D
:10007000F9000008F9000008F9000008F90000087C
:10008000F90000080000000000000000F90000086E
:1000900000000000F9000008F9000008F90000085D
:1000A00000000000F900000800000000F90000084E
:1000B0000448854600F0BCF900F048F800480047C5
:1000C000C9200008280800200C4880F308880C4844
:1000D0000168090E0B4A914205D10B480B4901609A
:1000E0000B480C4901600C4880470C480047FEE76C
:1000F000FEE7FEE7FEE7FEE7FEE700002808002037
:10010000040000001F000000181002400100000061
:1001100000000140000000006D080008B100000868
:1001200030B50B46014600202022012409E00D468F
:10013000D5409D4205D31D469540491B2546954017
:1001400040191546521E002DF1DC30BD70B5054C2E
:10015000054D03E0206800198047241DAC42F9D109
:1001600070BD00008430000888300008F8B50246F1
:100170004A40D40F42004B0052085B089A4202D218
:100180000246084611464A0023D0C30D4A00DDB29C
:10019000120EAD1A202D35DA49020126490AF6055C
:1001A0008A19002C00D0524220214F1B1146B94021
:1001B0002A411018C20D9A4221D0002C17D0012DCF
:1001C00008DCDA05801AD20F8019D207DBB200F002
:1001D000F5F8F8BDDA05801A012340001B06C018A7
:1001E00080185A428018CA0F1043490007E0490896
:1001F000C2071143DA05801A80194008801800F000
:10020000D5F8F8BD61000122511A001BF7E7012261
:10021000D2075140AAE70122D2075040A6E7024682
:1002200070B54A40D30FDB0740002DD04A002AD0DA
:10023000010E140E000212020919400A520A841813
:10024000E50104465443000A120A2E045043A4193F
:100250004219200CC543AA18120C0125AD03521CEB
:10026000521912047F39240400D0521C104301D4C7
:100270004000491EC2B20C06C0092018401C4008AC
:10028000802A02D003E0002070BD40084000002911
:1002900000DA0020184370BD70B502464A40D50F01
:1002A00040004A00ED0740085208002814D0002AF8
:1002B00012D0C40DD30D41020120C0055202490ADB
:1002C000520AE41A091812187D34914201D3641CB1
:1002D00000E04900002C01DA002070BD00239142AB
:1002E00001D3891A0343400849000028F7D10029A7
:1002F0000AD0914202D10121C90705E0914201D201
:10030000012101E00121C943E005C018401900F0B6
:100310004DF870BD420005D04200120E52428A4292
:1003200001DB00207047C90508187047C217C10FCC
:10033000504010B54018CA079623002100F03EF83F
:1003400010BD10B500229623114600F037F810BDFD
:10035000C20F410040020123400ADB05D207090E0B
:10036000C0187F2901DA00207047962903DC962304
:10037000591AC84001E096398840002AF4D040421A
:10038000704700000122D207002800DB101A002964
:1003900000DB511A814270470122D207002800DB9E
:1003A000101A002900DB511A88427047002904DA2C
:1003B000401C490001D140084000704770B400243F
:1003C000050C05D11024000402D1002921D01124EC
:1003D000050E01D100020834050F01D10001241DD2
:1003E000850F01D18000A41C002801DB4000641CA3
:1003F000002908D020252E1B0D46F540A14000D035
:1004000001212943084301061B1B000ADB1D02D5FD
:10041000002070BC7047DB05181880180029F8DA36
:10042000401C4900F5D170BC4008400070470000F6
:10043000064C0125064E05E0E36807CC2B430C3C37
:1004400098471034B442F7D3FFF736FE6430000803
:100450008430000870B58C180578401C6B075B0F62
:1004600001D10378401C2A1106D10278401C03E018
:1004700006780E70401C491C5B1EF9D12B0705D471
:100480000023521E0DD40B70491CFAE70378401C60
:10049000CB1A921C03E01D780D70491C5B1C521E88
:1004A000F9D5A142D8D3002070BD836A0B43836283
:1004B000426170470029816801D0012200E00222D8
:1004C0001143816070470029C16802D001221143A5
:1004D00001E049084900C1607047C26802239A439D
:1004E000C260C2680A43C26070478268002101236B
:1004F000DB071A4382600F231B038268491CD20F5B
:10050000D207994201D0002AF7D18168002901DB86
:10051000006C70470020704730B5C268084B8C688B
:100520001A400B680D792343CC686D032C43234399
:100530000C69496923430B431343C36030BD00007A
:1005400003D2FFFF816804221143816070470021BC
:10055000016001718160C16001614161704700000B
:100560000122054992050028886801D0104300E067
:10057000904388607047000000270140002901680F
:1005800002D00122114301E0014A1140016070478D
:10059000FEFF000030B503680C4A0C6A13408A68FD
:1005A0004D6922430C692C4322438C692243CC6958
:1005B00022434C6A22438C6A22431A430260CA686F
:1005C00042600A6882604968C16030BD0F80FFFFE9
:1005D000F0B50B2706463F04384600F067F80428BC
:1005E0000FD1084C206902252843206166612069EB
:1005F000402108432061384600F058F82169A9439A
:100600002161F0BD0020024008490420CA68D207D9
:1006100001D001207047CA68D20601D50220704778
:10062000C9684907FBD5032070470000002002403D
:100630000248016980221143016170470020024095
:10064000F8B5064600200B273F0400900D463846BB
:1006500000F02CF8042815D10B4C20690121084327
:1006600020613580384600F021F8042806D1B61CF8
:10067000290C00963180384600F018F821694908A5
:1006800049002161F8BD00000020024004480169D2
:10069000090603D5034941600349416070470000E2
:1006A0000020024023016745AB89EFCD00B503462A
:1006B000FFF7AAFF02E0FFF7A7FF5B1E012803D0A8
:1006C000002B00D1052000BD002BF4D1FAE7F0B5D6
:1006D0000022032501230C6893401C409C422AD130
:1006E0000C79012C01D0022C12D1876854002E46BF
:1006F000A640B74387604E79A6408468264386604B
:1007000084889C43848084888B7993401C438480B4
:10071000066853002C469C40A64306600E79076885
:100720009E403E430660C668A643C660CC799C40A6
:10073000C3681C43C460521C102ACBD3F0BD4B07C6
:10074000DB0E9A40C90810B589000818016A0F2409
:100750009C40A1430162016A1143016210BD018501
:10076000704781617047052000F046FF70B5FF2596
:1007700000210446AD05C943FFF7CCFD06460F49ED
:1007800060100C1A21463046FFF749FD2146FFF75D
:1007900046FD2946FFF73FFD2146FFF740FD044691
:1007A00001463046FFF73BFD2146FFF738FD29465D
:1007B000FFF731FD2146FFF732FD70BDDF59375F8E
:1007C000044A0029516901D0014300E0814351618D
:1007D0007047000000100240044A0029D16901D08E
:1007E000014300E08143D1617047000000100240E6
:1007F000044A0029916901D0014300E081439161DD
:1008000070470000001002400CB5002000900190DD
:1008100013491120086013484168416041684160F4
:1008200041687B22D2039143416041680522D20492
:100830001143416001680122120611430160016801
:100840008901FCD54168890889004160416802221C
:100850001143416041680907890F0229FAD10CBD93
:1008600000200240001002407047000010B51448FC
:1008700001680122114301604168124A1140416040
:100880000168114A114001600168012292049143FC
:10089000016041683F22120491434160C16A090925
:1008A0000901C162016BFF22543291430163416B24
:1008B00049084900416300218160FFF7A5FF10BD91
:1008C000001002400CB8FF08FFFFF6FE0029018867
:1008D00002D00122114301E049084900018070471C
:1008E00040300029818803D00122D203114301E066
:1008F0004904490C8180704770B5028C520852003F
:100900000284048C8288038B7025AB439B080D887E
:100910009B001D4302239C438E894B882643104C29
:100920003343A04208D00F4CA04205D00E4CA04249
:1009300002D00E4CA0420DD10824A343CC891C4305
:1009400004239C438B882343094C22400C8A144384
:100950004A8A22438280058389684163038470BD8B
:10096000002C01400040014000440140004801408B
:10097000FFFC000070B5028C10239A430284048CA3
:100980008288038B1A4D2B400D782D062D0C1D43AC
:1009900020239C438B891B051E0C4B8826431B057B
:1009A0001B0C144C3343A04202D0134EB04219D159
:1009B000124E32400E8AB604360C3243A04211D198
:1009C0008024A343CC892405240C1C4340239C434E
:1009D0008B881B051B0C2343094C22404C8AA40422
:1009E000240C22438280058389688163038470BD5F
:1009F000FF8C0000002C014000400140FFFB000084
:100A0000FFF7000030B5028C124B1A400284058CAF
:100A10008288838B104C23400C782406240C1C43C2
:100A20000E4B1D400B7B1B071B0C2B438D782D079A
:100A30002D0C1D430A4B984205D10A4B13400A8ADC
:100A40009205120C1A4382808483896801640584AC
:100A500030BD0000FFEF0000FF8C0000FFDF000052
:100A6000002C0140FFBF000010B50288144B9842D3
:100A700006D00124A407A04202D0124CA04203D108
:100A80007024A2434C8822430F4CA04203D00F4C49
:100A900022400C89224302804A68C2620A88028589
:100AA000984208D00A4A904205D00A4A904202D0A1
:100AB000094A904201D1897A01860121818210BDC3
:100AC000002C01400004004000100040FFFC00002A
:100AD00000400140004401400048014070B50D480D
:100AE0000B4900680546FFF79AFB0B49FFF73EFBF1
:100AF00004460A492846FFF792FB2146FFF7CCFB44
:100B00007F21C905FFF787FB0549086070BD00001C
:100B100000004040400000200AD7233C0000C040B5
:100B20001401002000210160704730B47446641E37
:100B30002578641CAB4200D21D46635D5B00E31860
:100B400030BC1847FFB581B01C4617460E0007D0D1
:100B5000019D02E02846B047ED192046641EF9D2F7
:100B6000019805B0F0BD02E008C8121F08C1002AB4
:100B7000FAD170477047002001E001C1121F002A1E
:100B8000FBD1704710B50323042204490448FFF742
:100B9000D9FF04480021016010BD0000250B0008AA
:100BA0008C0300201801002070B5174D06466868B8
:100BB0000024002801D101F093FE2868002801D10B
:100BC00001F010FF0722012301F058FE00F01EF88B
:100BD000002803D0184690402043C4B201F070FEB4
:100BE000521EF1D5002E02D001F07AFE01E001F094
:100BF0008BFE01F043FE01F063FE6868002801D01F
:100C000001F082FE204670BD8C0100200920C00644
:100C1000008A0121890208407047000010B505488C
:100C20004068002801D101F05BFE01F027FE01F0D1
:100C30006BFE10BD8C01002070B5104E0546B068EB
:100C4000012801D101F03CFE072428462041C007BD
:100C500002D001F045FE01E001F056FE01F01CFE5D
:100C6000641EF2D57068002801D101F039FE01F050
:100C700005FE01F025FE384670BD00008C01002005
:100C800010B5074A9068002801D101F0F7FD5068BF
:100C9000012803D1FFF7BAFF01F036FE10BD0000B6
:100CA0008C01002010B5084C6068012804D1A068B0
:100CB000002806D101F028FEA068002801D101F02B
:100CC000DDFD01F00DFE10BD8C010020F8B5154EC4
:100CD0004520000637460025183FB06001F0CCFEE5
:100CE0000024A000395880190F4A01F09CF9641CB7
:100CF000032CF6DB00F036FFFF20F5306D1C85423B
:100D0000ECDB45210906B068FFF781FA074D0024A6
:100D1000B060A0008019294601F072F9641C032C10
:100D2000F7DBF8BD580300201F856B3F0000FA4336
:100D300070B592B0202503206946069508770024F7
:100D4000CC77092006A9C006FFF7C1FC01214802A3
:100D5000FFF74EFD01210846FFF732FD2A480690B5
:100D60002A4807900220099080200B9040000C90A8
:100D7000089480000E950D900A94C000244D0F90A9
:100D800006A910942846FFF705FC1F4E0221403E9D
:100D90003046FFF7A2FB01213046FFF794FB68467F
:100DA000FFF7D5FB012069460094087104200590E7
:100DB000029404943046FFF7AFFB01210722490457
:100DC0003046FFF772FB072220213046FFF76DFB0C
:100DD0000120FFF7C5FB3046FFF787FB01213046B6
:100DE000FFF768FB3046FFF7ADFB01212846FFF710
:100DF000C5FB08480088FFF7A4FA0749FFF70FFA78
:100E00000249486012B070BD4024014080010020BA
:100E100008000240BAF7FF1F62DB963F10B50B498E
:100E2000002803D0012808D0002010BD0888FFF753
:100E300088FA0749FFF7F3F910BD4888FFF781FAF0
:100E4000014602484068FFF727FA10BD80010020E4
:100E50003FC8B23AF8B58400124801591248075900
:100E60003846FFF7DCF90F4D0646103528460830A6
:100E700001593846FFF7CBF9294608390959FFF7D8
:100E8000CEF90A490968FFF7CAF93146FFF76EF94A
:100E900028512846083007516019054901F0B0F87B
:100EA0002859F8BD20010020980300204C010020A3
:100EB000DB0FC94070B5184C606A002804D00025CB
:100EC000012809D0656270BD0120E06001F030FDAD
:100ED000606A401C606270BD172002F064F8C006B2
:100EE00008D58F21002002F083F86562E56001F0EB
:100EF000F7FA70BD00F036FE616B401A0749884270
:100F0000F7D9E12002F02EF88F21002002F070F8CE
:100F10006562E56070BD00006000002010270000E1
:100F200070B5002506462C46A00030580146FFF754
:100F300076F92946FFF71AF9641CE4B20546032C3A
:100F4000F2D3FFF713FC01467F20C005FFF7A4F999
:100F500070BD0000F8B5164F0C227968134E51434E
:100F6000144A8A1839688C001159002802D0124E90
:100F7000491C00E0491E1151BD6831462859FFF750
:100F80004EF928513C68002C04D131466868FFF7BF
:100F900046F9686078680C21484306494018A1006A
:100FA0004058002800DA4042F8BD00002EBA683FE1
:100FB00040010020A4030020CDCC8C3F30B500229E
:100FC00007239C1A6418203C855CE47FA54201D06D
:100FD000002030BD521C072AF3DB012030BD000089
:100FE000FEB5072001F0DFFF0007400F00250728AE
:100FF00001D0022000E028460126584C002859D094
:10100000606800281DD000F0ADFD07460F21544850
:1010100001F0B3FF00F072FA00284BD0E06A401CE8
:10102000E062E069002801D0FFF744FF6561A56137
:10103000A068A763E76325616064E068002837D093
:101040003BE00F21464801F098FF454B1868A42863
:1010500001D0A3282ED1A32802D14248E661206204
:101060003E4F187E28373870187F7870188CB8700B
:10107000988CF8703C486A4603C8009001910120A2
:101080008100595C1154401C0628F9DB06211046EA
:1010900001F046FF3020694608700621684601F0DD
:1010A0003FFFA068395C252001F0A2FF666001E0E7
:1010B00001F016FAE068002801D0FFF7FBFE00F00F
:1010C00051FD0746A06B391A206A82007D20C000BE
:1010D000101881420BD96068002808D0A763A06966
:1010E000002801D1606CA06001F0FAF9A661E16806
:1010F000A069084319D160690090052815D260687D
:10110000002812D0A06B7D21381AC90088420CD962
:10111000216AFFF705F801460098401C814204D37C
:1011200001F0DEF96069401C6061E06B381A0F4F16
:10113000B84205D90E482661056045608560C560E6
:1011400000F010FD216C401AB84205D9E06AE56252
:10115000206300F007FD2064FEBD00006000002059
:1011600004030020881300004430000840420F00B0
:10117000DC020020F0B57F2085B0C005C64E00908F
:101180007078002802D13F20000600900024C34858
:10119000A700C0590099FFF742F8C14D641CE851FF
:1011A000032CF4DB00F03CFBBE480068002807D0AD
:1011B000BD4A002081005358401C6B500328F9DBC6
:1011C000BA480078002804D03078002801D101F016
:1011D000B1FDB74C012520680027002838D000F069
:1011E00041FC002834D0B34901280FD004281FD077
:1011F000032820D0072800DBA56005281ED006287C
:101200001FD0072820D0082865D021E0A06800283A
:1012100009D00D60A76000F0C3FA00F07FFA00F07B
:10122000A1FCA54913E000F0BDFCFFF74FFDF2E77C
:1012300035710D600CE00D60377109E001F034F993
:101240004BE001F023F948E000F050FE45E0086073
:1012500001F00EFA90480079002803D09748006802
:10126000002828D08E4896490068FEF7D8FF954997
:10127000FEF7D5FF94490968FEF7C9FF884E9049EB
:101280000C3E306086484068FEF7C9FF8D49FEF786
:10129000C6FF8D494968FEF7BAFF706080488849EB
:1012A0008068FEF7BCFF8749FEF7B9FF8649896869
:1012B000FEF7ADFFB060002001F032F9012001F02F
:1012C0002FF9022001F02CF974488049C068884247
:1012D00005DA002609E000F079F97D49B7E7FEF765
:1012E00096FF7C49FEF79BFF06467B480068002876
:1012F00002D17A48864215DA6068002807D000F0EB
:1013000031FC6168401A7649884200D9676000263E
:10131000F0B2002101F036FA761C032EF8DDE7600A
:10132000256068E0624C0020206000F01BFC6060DB
:101330005C480068002801D05B48C668694C3046AC
:1013400027683946FEF763FF049065682946FEF773
:101350005EFFA4682146FEF709FF03903946304638
:10136000FEF704FF06462946FEF751FF2146FEF729
:101370004EFF019029460498FEF7F8FE2146FEF73D
:1013800046FF029030462946FEF7F0FE2146FEF762
:10139000EDFE00246E460090A5007059214601F034
:1013A00063F8641C7051032CF6DD0020404F0446A6
:1013B000F860A500705901F067F80146E0B201F04D
:1013C000E1F970590121C907884202D90020705102
:1013D00004E07F21C905884200DD71517159F86828
:1013E000FEF7C4FE641CF860032CE2DD0121C94352
:1013F000FEF790FFF86028480079002849D02F4870
:101400000068002845D101F0BFFC25482C498068C0
:10141000FEF705FF2B49FEF702FF0546324C294631
:101420006068FEF7FCFE009001212068C907484073
:101430002946FEF7F4FE01902946A068FEF7EFFE6C
:101440002A4E2B4F00240290A50070592949FEF71F
:10145000E6FE0146E819284A00F0E5FD641C012C6F
:10146000F2DD0F4F0024184E0C3F2046FFF7F2FC30
:10147000A50069464959FEF779FE7159FEF7C7FE86
:10148000641C7851022CF0DBB1680298FEF7BFFEB5
:10149000B86005B0F0BD000010020020DC020020A2
:1014A000C0010020F80000207C030020F80200208A
:1014B000000000202400002044000020F000002054
:1014C0000000B44335FA8E3C4C030020CDCCCC3D1B
:1014D00028000020E4388E3F700000206F12833A0D
:1014E00040420F00D4030020E400002070030020DD
:1014F00098030020E12E6542A7373D3FF8B52D4CFB
:101500002068A52853D1002108468200A258401C1B
:1015100051180E28F9DBC8B2A16B884247D1254883
:10152000103000F0EDFF244D28602248183000F004
:10153000E7FF68601F48283000F0E2FFA860208CB9
:10154000616A8007800D4018FEF7F0FE1B49FEF728
:1015500066FEE860207B1A4D0006C00FA871A068E7
:10156000C106C90FE9718106C90F29720107C90FA8
:1015700029706168FA2918D0002169708107C90FA4
:10158000C007A970C00FE87000200E4B0E4C074634
:1015900001261F54225C295C8A4200D01E5421542B
:1015A000401C0A28F5DB0120F8BD0121E5E70020F9
:1015B000F8BD000004030020DC020020F7FF7F3AA2
:1015C00010020020F8020020EC02002010B50020DC
:1015D000FFF7C0FC10BD08B5810040180090411E07
:1015E000009101D30846FAE708BD01200146401EDC
:1015F000C0B20029FAD1704706460024E0B20021AB
:1016000001F0C0F8641C032CF8DD0B4DAF00002482
:101610000CE0FF2000F0E2FC2846FFF7DCFFFF2093
:1016200000F0CAFC2846FFF7D6FF641CB442F0DB8A
:101630003846FFF7D0FFEAE7400D030010B5034935
:10164000FEF794FD00F004F810BD0000DB0FC93F69
:1016500070B50446134E144D03E03146FEF786FD87
:101660000446AC42F9D8114DAC4204DD3146FEF7D8
:10167000CEFD0446F8E70120C0070D490D4D844218
:10168000204605D9FEF7CBFD2946FEF76FFD04E0A5
:10169000FEF7C5FD2946FEF7BEFD2146FEF7BFFD5C
:1016A00070BD0000DB0FC940DB0F49C0DB0F4940B4
:1016B0007B81CF3E83F9A23FFEB500273D46002443
:1016C000681CFEF733FE01900E49A8000E58601CFE
:1016D000FEF72CFE0090A10071580198FEF79FFDC7
:1016E0000099FEF79CFD0849FEF799FD3946FEF783
:1016F0003DFD641C0746032CE9DB6D1C032DDEDB7E
:10170000FEBD0000740100208D976E3F10B5FFF7FD
:10171000D3FF0149086010BDB0000020F8B50020DB
:10172000012400F031F91A4DA84230D1FF2000F019
:101730002BF9A8422BD12046022500F02DF915499E
:1017400048600968FEF71EFE11D100260024B7008C
:1017500028466D1C00F020F90F49A200C959641CED
:101760008850032CF4DB761C032EEFDB00E00B2506
:1017700028466D1C00F010F9084C206028466D1CAE
:1017800000F00AF96060284600F006F9A060F8BD94
:101790000100AA12B00000207401002058030020AC
:1017A000F8B500F0FDF800F0DDF80020012418493C
:1017B00001F0C8FB174920460225096800F0F4F83B
:1017C00000260024B7001448A100C05941582846FB
:1017D0006D1C00F0E9F8641C032CF4DB761C032E6E
:1017E000EFDB0E4C28466D1C216800F0DDF86E1C06
:1017F0002846616800F0D8F83046A16800F0D4F8B7
:101800000349FF2001F09EFB00F0BAF8F8BD00008C
:101810000100AA12B000002074010020580300202B
:10182000F8B5444CE068002849D0434806270068D2
:10183000002800D0276100F095F9E169401A3F497E
:10184000884200D92761206900263D4D0300FFF73B
:101850006CF907360522374A586B69000120206071
:10186000A0606E603748AE60E8603748816801204C
:10187000C00781420DD9A069002801D0334800E09B
:1018800033486169890068503F200006E860042001
:101890002061022012E000F065F9E169411A2D484B
:1018A00081420CD9A069002801D0284800E02848CE
:1018B0006169890068502348E86003202061F8BD11
:1018C00000F050F9E169401A2349884200D92761A4
:1018D0001D4881680120C0078142F0D93F200006E1
:1018E000E8600420EAE7184880680028E7DD00F097
:1018F00039F920621948E8600120266060600520FF
:10190000DCE7174801682960416869608068A86061
:10191000606980002E5000F025F9216A411A0D48B7
:101920008142CCD92761F8BDE660266126606660F9
:10193000A660F8BDF00000200000002060E3160063
:101940007C030020CDCC4C3FE40000205555854061
:10195000555585C0400D030060AE0A009A99193FA5
:10196000DC02002010B50548FEF732FE042803D043
:10197000FEF75EFE012010BD002010BD007C0008B7
:1019800010B5FEF755FE10BD0249800040180068F2
:1019900070470000007C000800B5FFF7F5FF00BDB0
:1019A00010B5FEF773FE10BD10B501F0CBFA10BDF7
:1019B00030B52A4C217881424ED007216218203A56
:1019C000D27F6254491E0129F8DA20702449234845
:1019D000FFF7F4FA7F25002802D06570032030BDA0
:1019E0001F491E48C91DFFF7E9FA002802D065709B
:1019F000042030BD1A4919480E31FFF7DFFA0028DC
:101A000002D06570012030BD154914481531FFF72B
:101A1000D5FA002802D06570052030BD10490F4866
:101A20001C31FFF7CBFA002802D06570062030BDCC
:101A30000B490A482331FFF7C1FA002802D065702C
:101A4000072030BD064905482A31FFF7B7FA0028BC
:101A500002D06570082030BD002030BD5800002045
:101A60001230000870B53948394C0068002867D03A
:101A7000384B7D201A68C0055100490881420BDAB5
:101A80009D686D006D08854206DA5D686D006D0821
:101A9000854201DA002031E0BF252D06AA4202D896
:101AA0009E68AE4206D95E6876007608864201DA04
:101AB000012023E03F263606B24202DC9A68B24299
:101AC00006DD5A6852005208824201DA022015E00F
:101AD0005A68AA4208D9814206DA9D686D006D08ED
:101AE000854201DA032009E0B24208DD814206DACC
:101AF000996849004908814201DA0420206000F019
:101B000031F806CC083C914200D0E060E268801ACF
:101B1000114A90420FD9002904D1104A904201D9AC
:101B20000C2005E00E4A904204D97F2903D0FF2003
:101B3000A06000E0A1606160A068FFF739FF70BDA0
:101B40007F20A0606060002070BD000000000020C9
:101B500048000020DC020020A086010040420F0067
:101B600020A1070010B501F0C3F910BD1CB523205A
:101B700001214004FEF724FE01206946087100207F
:101B80008871C8710320487104200924E40600907C
:101B90002046FEF79CFD0821009169462046FEF78D
:101BA00096FD1CBDF0B591B0FFF7DCFF0F90054628
:101BB0000B900A9000208100574B0CAA5B58401CE8
:101BC00053500328F7DB8CE00A980A95281A0990ED
:101BD00001D10120099006226946432000F0B4F8A3
:101BE000009801990002401800B2FEF79FFB079091
:101BF000029803990002401800B2FEF797FB069086
:101C0000049805990002401800B2FEF78FFB434E7E
:101C10000890307800F07CF920464149FEF780FAC0
:101C20004048814201D9012100E000213068C2070B
:101C3000D20F914201D0401C30603848017809072A
:101C4000090F00260160B4000CAF06A839590059ED
:101C5000FEF7A2FB04D238593349FEF787FA385110
:101C600006A839590059FEF78DFB04D238592E4980
:101C7000FEF7CDFA3851E0192C4900F0C1F9385976
:101C80002B4940004008FEF771FA014606AF38596B
:101C900040004008FEF780FB06D2FFF763FF0B9081
:101CA0001E48012101600BE00998FEF74AFB21491B
:101CB00000F0CFF9024618483959201800F0B3F95E
:101CC000761C032EBFDB7D24E400FFF74BFF401B97
:101CD000A04203D20A20FFF77EFCF6E7FFF742FF9F
:101CE00005460B982C1A1448844205D20F981349C4
:101CF000281A884200D267E70B98291A0E488142B9
:101D000007D20020044A01468300401CD15003281A
:101D1000FADB11B0F0BD000064030020CC0000200D
:101D200024F40000127A0000CDCCCC3D00004844E1
:101D30000000C8420024F44880841E00C0E1E40092
:101D400010B500F00BFF10BD13460A4610B5014652
:101D5000682000F046FF012010BD10B50146682044
:101D600000F026FF10BD0A4610B50146682000F0BD
:101D70005FFF10BDF0B5444C444D87B02168286822
:101D8000FEF745FA286061686868FEF740FA0024AB
:101D90000A27FF436860A600A8593946FEF7BAFA39
:101DA000641CA851032CF6DB39480024006804AFFA
:101DB00000903848A60080590099FEF730FA641C5C
:101DC000B851032CF5DB344E049834682146FEF7F5
:101DD00026FAB168FEF71FFA019001990498FEF700
:101DE0001EFA2146FEF7C2F9074601990598FEF74B
:101DF00016FA7168FEF7BAF9044621460598FEF70F
:101E00000EFA0199FEF707FAB06021460698FEF730
:101E100006FA3946FEF7FFF93060069A0146104689
:101E2000FEF7FDF92146FEF7A1F970601748FFF7AC
:101E300077F81A491A4A4118914222D27F22D205D4
:101E4000014600241046FEF727FA0090A700E95942
:101E5000FEF7E5F9641CE851032C01DA0098F5E778
:101E60000B483F210906006800F005F907460024E9
:101E7000A000295880193A4600F0D5F8641C032CBC
:101E8000F6DB07B0F0BD000058030020400300203F
:101E9000400000204C030020E4000020CCCCCCC04B
:101EA00032337300F8B500250D4F00F0E5FD002436
:101EB000A6000A21B859C943FEF72CFA0146094881
:101EC000094A301800F0AFF8641C032CF0DB7D20C9
:101ED000C000FFF780FB6D1C642DE6DBF8BD000041
:101EE00040030020E40000209A99593F10B50120DA
:101EF000FFF730F810BD0EB500226B461A805A80ED
:101F000001911A819A726946FEF7AEFD0EBD00007E
:101F100070B50646FFF726FE194C21692061451A67
:101F20003046FEF70EFA1749FEF779F90646012109
:101F3000204689070C3000F063F82846FEF701FAC6
:101F4000054630466168FEF762F92946FEF767F9F3
:101F50000D49FEF764F9E168FEF708F90B49E06006
:101F6000884205DDFF2000F039F87F20C00503E03E
:101F7000FF2000F021F800206060002070BD00000C
:101F8000B80000208988883D6F12833A48E1FA3E04
:101F900070B50D460446FFF7E5FD2146FEF7C0F893
:101FA0006C432009814203D90F2000F017F870BD5F
:101FB0000F2000F001F870BD70B50446064DC00753
:101FC00003D004212846FEF7CCFBA00703D5082147
:101FD0002846FEF7C6FB70BD0000004870B50446F9
:101FE000064DC00703D004212846FEF7B8FBA00722
:101FF00003D508212846FEF7B2FB70BD000000485B
:1020000070B504460120C0070D4645400E462068C5
:10201000FEF7C2F900D2266028462168FEF7BCF917
:1020200000D2256070BD70B505460C467F2016466F
:102030001146C005FEF7EBF82146FEF7F0F804461E
:1020400031462868FEF7EBF82146FEF78FF8286046
:1020500070BD10B5FEF720F97F24E4052146FEF798
:10206000DAF8A04201DD204610BD0121C9078842EF
:10207000FAD9002010BD10B5FEF7D1F87F24E40591
:102080002146FEF7C8F8A04201DD204610BD01211F
:10209000C9078842FAD9002010BD000070B50C00B5
:1020A000054601D1FEF71AFD0549A0004418054870
:1020B000294602682046FFF7B6FF206870BD000081
:1020C0008C030020140100200EB57D20C000FFF716
:1020D00082FAFFF74BFD00F0CBFD00F0F3FEC7489E
:1020E000FFF779FAFFF72CFE00F0D2FA002108463C
:1020F00000F048FB0021012000F044FB00210320F8
:1021000000F040FB0021022000F03CFB00F088FCC6
:1021100000F076FC00282DD0FEF70AFEB849012019
:102120008872087100F060FBB64D00240020FEF7B5
:1021300075FE2968FEF71AF828607D20C000FFF7B9
:102140004AFA641C402CF1DB0521C9432868FEF7DC
:10215000E1F82860FFF726FD00F044FBFFF7A2FE40
:10216000FFF7D4FAFFF7DAFAA7480068002803D08F
:10217000072021E004201FE0FFF7F4FC6863FFF76D
:10218000F1FCA04C0546606B281AFEF7DAF82063D4
:10219000002802DC7F20C00520639C49FEF73FF841
:1021A0009B492063884201DD062005E0964865636F
:1021B0000068142802DD0820FFF71EFA00F05CFC1E
:1021C000FEF7D8FFFFF7D6FD0020FEF727FE8D4C67
:1021D000E168FEF724F806460120FEF71FFE0146DF
:1021E0008C4F20463A460C30FFF71DFF8A48666048
:1021F00001683A466846FFF716FF2046874A2030B6
:102200002168FFF710FF3A4631462046FFF70BFFE3
:102210000121C943206AFEF77DF8064680492068FF
:10222000FDF7FDFF3146FDF7F2FF01907D48009C70
:10223000844258DD734F786A0646FEF777F879498D
:10224000FDF7EDFF2146FDF7EAFF0199FDF78EFF4F
:102250006B49B4006C3108510646F86A002808D072
:10226000002030398200401C8E500C28FADB002000
:10227000F86263486C490C300059FDF7D0FF0290BA
:102280005F483C3001593046FDF7C1FF0299FDF728
:102290006DFF5B493C310E51303908510146FDF765
:1022A000BEFF574E01469C36A019604AFFF7BBFEA1
:1022B000786A401C78620C2801DB00207862306864
:1022C0000290786A0B280ED10024A700F0590299D9
:1022D000FEF758F804D2F05902904A48611C816216
:1022E000641C0C2CF1DB474C2069002800D04D48C1
:1022F0004F49FDF73BFF0746A06AFEF717F8494E26
:102300003146FDF78CFF0099FDF789FF0199FDF734
:102310002DFF3946FEF736F803D346492068884238
:1023200001DA012000E000202061A06AFDF7FEFF35
:102330003146FDF774FF0099FDF771FF0199FDF734
:1023400015FFA0602069002801D0082108E03A4864
:102350000068002806D039480068002804D00F2102
:1023600037482DE00C2113E06069002812D0E069A5
:10237000002802D1FFF7F6FBE061FFF7F3FBE1690C
:10238000411A2F48814202D900206061E061082192
:102390001A4815E0A069002815D0E069002802D18C
:1023A000FFF7E0FBE061FFF7DDFBE169411A24483C
:1023B000814204D9A169491EA1610021E161032183
:1023C000FFF7E6FD0AE00E48807A002803D0FF20E0
:1023D000FFF704FE02E0FF20FFF7EEFDFEF700FE30
:1023E0007D24E40002E00A20FFF7F5F8FFF7BAFBCE
:1023F000401BA04200D3C2E6F5E70000A086010022
:10240000100200201000002088010020BD37863512
:102410000AD7A33C492E7F3F0C00002029EA7F3FCA
:102420000000A03FCDCCCC3D42F27C3F67B17F3F66
:1024300000006040CDCC2C406400002070000020E3
:1024400020A1070010B506490868002806D0002022
:102450000860091D08710348FEF739F910BD000036
:10246000A00100200014004870B503468C00044D04
:10247000044A60191946FFF7D6FD285970BD0000BF
:10248000D00100203333333F70470000054908680E
:10249000022804D001DA02200860401C70470020A6
:1024A000FAE70000400100200C494868002804D0E9
:1024B000012807D002280AD10BE008481C308860A8
:1024C000012003E005482830886002204860401C55
:1024D00070470248103088600020F7E74001002074
:1024E00010B50649087A401C8007800F88602831A3
:1024F000095C252000F07CFD10BD0000600000207C
:1025000010B5416800788007800DFF38FF38023829
:102510000818FDF70BFF0821C943FDF7FBFE10BDAE
:10252000F1B54A4884B001680498494F494E840087
:10253000002904D038594849FDF771FE3851474801
:102540000025015942480C300059FDF71BFF03D10B
:102550003059002800DD0125404801210059C907F4
:1025600048403B490C310959FDF70CFF04D1315962
:102570000120C007814226D8002D24D134480221F1
:10258000183005592846FDF7C5FE31493C31095937
:10259000FDF7ECFD31590091FDF7E8FD3049FDF7FD
:1025A0003EFE30490959FDF73AFE2F490968FDF70B
:1025B00036FE3959FDF7DAFD385125483C300551D2
:1025C00024380099015125480C300159E019FFF7D2
:1025D00017FD24480C3801593059FDF720FE1C4ED8
:1025E00039590C36FDF7C2FD039004983746C500F3
:1025F0001837E819019000214068C943FDF78AFEA9
:1026000002901A4800210059C9430090FDF782FE4C
:102610000299FDF7FCFD13490C310959FDF7FFFD47
:1026200010491C39C968FDF7FAFD0399FDF7F3FD60
:102630003051019879594160009878510748015903
:10264000A019FFF7DDFC305905B0F0BD00000020F7
:10265000C8030020B401002048E17A3F4C30000854
:102660007EAA2A3E5C010020400000204C0300208E
:1026700010B5044801680448FDF70EFE0349C86020
:1026800010BD00004000002017B7513B4001002062
:10269000FEB5022569460D710320487100248C7136
:1026A000CC7101212846FEF797F8314F3148394661
:1026B000FFF721FC01210E023046FEF78DF8394666
:1026C0002D4F3846FFF717FC2C486021018001216F
:1026D000418084810682846010200924E4060090F1
:1026E00069462046FDF7F3FF042211462046FEF717
:1026F00026F822493846FEF7FFF840200090694648
:102700002046FDF7E4FF012206212046FEF717F8D8
:102710001A491848FEF7F0F88020009069462046D4
:10272000FDF7D5FF012207212046FEF708F81349DF
:102730001048FEF71FF9124C694620460095FDF738
:10274000C6FF012211462046FDF7F9FF0B49094853
:10275000FEF758F901210748FEF7B8F801210548AE
:10276000FEF7BEF801213846FEF7B0F8FEBD0000C6
:10277000B70B0000000400400020004010040020BF
:102780000004004810B50A46044612491046FDF7F9
:1027900046FDFDF7DDFD002801DA002003E00E49CB
:1027A000884200DD08460D49002C08D0012C08D0D5
:1027B000022C0AD0032C01D180B2886310BD80B2F4
:1027C00001E0074980B2486310BD044980B240313E
:1027D000086010BD00703B45B70B000000040040CE
:1027E000002000407047000010B52248012181728E
:1027F0000022C272017102211F4800F091FB642087
:10280000FEF7E9FE1C480621483000F089FB002154
:10281000012000F0EDFB0121022000F0E9FB212165
:10282000062000F0E5FB0F21112000F0E1FB002164
:10283000042000F0DDFB0321084600F0D9FBE22074
:1028400000F090FB0021052000F0D2FB38211D2074
:1028500000F0CEFB00F006FAFD2000F045FA002063
:1028600000F042FA00F0F8F98F21002000F0C0FBE0
:1028700010BD0000100200206000002000B5012003
:1028800009214002C9068861FEF7AFFE0149012017
:10289000886000BD8C01002000B501220920520291
:1028A000C0068261FEF7A1FE03480281FEF79DFE8D
:1028B00002490020886000BD200000488C010020F3
:1028C00000B50120044940020881FEF78EFE03494D
:1028D0000020886000BD0000200000488C0100201E
:1028E00010B5084C2068002801D100F07BF80120C9
:1028F00009218002C9068861FEF777FE0120606029
:1029000010BD00008C01002010B5074C2068002885
:1029100001D100F067F801200449800208810020FD
:102920006060FEF762FE10BD8C01002020000048B0
:1029300070B590B000206C4681006050401C0F289C
:10294000FADB852000902248224D06682248019635
:1029500029460068FDF763FCFDF7FAFC0104C0B2EC
:10296000090E049003911D4829460068FDF757FCA5
:10297000FDF7EEFC0104090EC0B2194D0591069059
:10298000286BC10F08184010FF2800DDFF200790BA
:10299000002E03D003980821084303900021084625
:1029A0008200A258401C51180E28F9DBE1200E913C
:1029B00000F0D8FA8221002000F01AFB0F216846AF
:1029C00000F002FBFFF7CEF8686310B070BD0000A6
:1029D000200000200000C842100000201800002045
:1029E0006000002010B50549012008600C31087115
:1029F0000920C006FDF76BFE10BD00008C01002011
:102A000010B57520FFF7A9F9682807D0982805D0D8
:102A10007D2803D0722801D0002010BD012010BDF8
:102A200010B580216B20FFF79EF91248FEF7D3FD09
:102A300001216B20FFF797F97520FFF78EF96828C1
:102A400001D0012400E000246420FEF7C4FD182119
:102A50001C20FFF788F9002C03D005211D20FFF76B
:102A600082F918211B20FFF77EF903211A20FFF7B6
:102A70007AF910BD409C0000F0B593B00E22694673
:102A80003B20FFF761F9029803990002401800B259
:102A9000FDF74CFC2E4C2060009801990002401874
:102AA00000B24042FDF742FC6060049805990002C4
:102AB000401800B2FDF73AFCA0600898099900029E
:102AC000401800B2FDF732FC11900A980B990002F1
:102AD000401800B2FDF72AFC10900C980D990002E6
:102AE000401800B2FDF722FC12902434216810989F
:102AF000FDF78DFB109061681198FDF788FB119030
:102B0000A1681298FDF783FB12900120109AC0076C
:102B100011994240109111464140119112990C4F68
:102B20004140002410AE0C371291A500705909499C
:102B3000FDF775FB0849FDF772FB70512146FFF761
:102B4000ADFA641C7851032CEFDB13B0F0BD00002C
:102B50004003002000007A3D35FA8E3CFEB501208E
:102B6000400200900124684604718471C4710325F9
:102B700009274571FF0669463846FDF7A8FDA602FC
:102B8000694638460096FDF7A2FD08480021066018
:102B900001718471C47145710C38416004608160B9
:102BA000FFF79EFEFFF76AFEFEBD000098010020C1
:102BB00070B50D460446FEF763F860000446FEF764
:102BC0003BF82846FEF738F8FEF728F8601CFEF7B9
:102BD00033F80120FDF7E8FFC4B2FEF763F82046A2
:102BE00070BDFFB581B01D46164607460024FEF7AE
:102BF00047F878000746FEF71FF80298FEF71CF822
:102C0000FEF70CF8781CFEF717F86D1E05E00020A3
:102C1000FDF7CAFFA1007050641CAC42F7DB012035
:102C2000FDF7C2FFA1007050FEF73CF805B0F0BD03
:102C300070B515460E460446FEF722F86000FDF713
:102C4000FBFF3046FDF7F8FF2846FDF7F5FFC4B25D
:102C5000FEF728F8204670BD01200921C9068861C9
:102C6000704700000149012008817047200000489A
:102C7000FEB501246846047100258571C4710326E0
:102C800046710220009069460A48FDF720FD092799
:102C9000FF06694638460094FDF719FD06480460B2
:102CA00005718571C471467101460248FDF70FFD3B
:102CB000BC61FEBD00140048A401002030B4002017
:102CC0000721074C074D0223A3614200208A2B8174
:102CD000C007C00F1043491EF6D530BC7047000036
:102CE000001400482014004870B504460D48012522
:102CF00001680D4E002906D105600C48057101469A
:102D00003046FDF7E4FC0721094A022023460B4127
:102D1000DB0701D0B56100E01581B0611081491E6B
:102D2000F4D570BDA001002000140048A4010020CB
:102D30002014004870B5114C1149E0680968114E23
:102D400008430125002804D1E560FEF70BFF25614B
:102D5000E06100206061A06170684100306849084E
:102D600040004008FDF70EFB04D26561706802E088
:102D7000A56170BD30680028FADC70BDF00000204D
:102D800000000020DC020020F8B5464E464D3168B8
:102D90002868FDF7F7FA04D171686868FDF7F2FA60
:102DA00054D034682C607068404E68603146FDF73E
:102DB00036FA3F4F3946FDF732FA0546314620468E
:102DC000FDF72DFA3946FDF72AFA0646FEF740FCD4
:102DD000354C083420602846FEF73AFC60602846EF
:102DE000FEF72CFC05463046FEF728FC2946FDF789
:102DF00016FA0646A06060680146FDF710FA05461F
:102E000020680146FDF70BFA2946FDF7AFF929497D
:102E1000054688420FDD31460846FDF700FA7F215E
:102E2000C905FDF7F8F901462846FDF735FAFDF723
:102E30009DFC054600E0204D20682946FDF7EFF98E
:102E4000206029466068FDF7EAF96060164C1B4E69
:102E50000834A068009070680099FDF7E0F9B76841
:102E6000054661683846FDF7DAF92946FDF7CFF9DE
:102E7000134D686030680099FDF7D1F90646384671
:102E80002168FDF7CCF93146FDF7C1F97F24E4054F
:102E9000286021462846FFF7B3F82146281DFFF792
:102EA000AFF8F8BDC0010020D000002000005C4257
:102EB00035FA8E3C6F12833AF4FD343FE400002073
:102EC0007003002010B50848064941610749CA69E6
:102ED00003231202120A44042243CA6100218161C1
:102EE000036110BD7F8D5B0000E000E004ED00E0B9
:102EF00010B5094842698169084C2068814201D2B5
:102F0000401A01E0521A101821600621FDF708F955
:102F100061684018606010BD00E000E0AC01002076
:102F200070B50D460646FFF79DFE002404E0305DB7
:102F3000FFF7DAFE641CE4B2AC42F8D3FFF78CFE74
:102F400070BD0000064A10B580008018FDF778FBC0
:102F5000042804D0FDF76CFB0520FEF74DFB10BDE7
:102F6000007C000810B50446FFF77CFE2046FFF702
:102F7000BBFEFFF771FE002010BD70B50D46064682
:102F80000024FFF76FFE6120FFF7AEFEFFF75AFA4D
:102F900004E0FFF793FEA1007050641CAC42F8DB24
:102FA000FFF75AFE70BD10B5C406E40EFFF75AFED7
:102FB0002046FFF799FEFFF745FAFFF77FFE04462C
:102FC000FFF74AFE204610BD70B50D4606460024A8
:102FD000FFF748FEA020FFF787FE04E0A00030586E
:102FE000FFF782FE641CAC42F8DBFFF735FE70BDD4
:102FF00070B58406A40E20200D460443FFF732FE70
:103000002046FFF771FE2846FFF76EFEFFF724FE0D
:1030100070BD0C0100010003000C0200020003005F
:103020000C0300030003000C0400030004000C0464
:1030300000030003000C0400030002000C04000362
:10304000000100002A00000000000000CDCC4C3F31
:10305000CDCC4C3F0000003FCDCC4C3FCDCC4C3FC5
:103060000000003F8830000800000020B40100008C
:1030700054040008EC300008B4010020740600007D
:10308000760B000801DBFFFF32012904C12D6666C3
:10309000864004210B12803F1C81E91C01140A1D8B
:1030A00039250326B80B922A031C20C1A0097B14E2
:1030B000524185EB41410B14803F0C011D79282DB5
:1030C000295C0F3E04493C09184013500142202D51
:1030D000EC51B83D0429445C9A9919046B993E0C53
:0C30E000692C1A5C045A683401300000AE
:04000005080000C926
:00000001FF
